{
  "_format": "hh-sol-artifact-1",
  "contractName": "Marketplace",
  "sourceName": "src/backend/contracts/Marketplace.sol",
  "abi": [
    {
      "inputs": [
        {
          "internalType": "uint256",
          "name": "_feePercent",
          "type": "uint256"
        }
      ],
      "stateMutability": "nonpayable",
      "type": "constructor"
    },
    {
      "anonymous": false,
      "inputs": [
        {
          "indexed": false,
          "internalType": "uint256",
          "name": "itemId",
          "type": "uint256"
        },
        {
          "indexed": true,
          "internalType": "address",
          "name": "nft",
          "type": "address"
        },
        {
          "indexed": false,
          "internalType": "uint256",
          "name": "tokenId",
          "type": "uint256"
        },
        {
          "indexed": false,
          "internalType": "uint256",
          "name": "price",
          "type": "uint256"
        },
        {
          "indexed": true,
          "internalType": "address",
          "name": "seller",
          "type": "address"
        },
        {
          "indexed": true,
          "internalType": "address",
          "name": "buyer",
          "type": "address"
        }
      ],
      "name": "Bought",
      "type": "event"
    },
    {
      "anonymous": false,
      "inputs": [
        {
          "indexed": false,
          "internalType": "uint256",
          "name": "itemId",
          "type": "uint256"
        },
        {
          "indexed": true,
          "internalType": "address",
          "name": "nft",
          "type": "address"
        },
        {
          "indexed": false,
          "internalType": "uint256",
          "name": "tokenId",
          "type": "uint256"
        },
        {
          "indexed": false,
          "internalType": "uint256",
          "name": "price",
          "type": "uint256"
        },
        {
          "indexed": true,
          "internalType": "address",
          "name": "seller",
          "type": "address"
        }
      ],
      "name": "Offered",
      "type": "event"
    },
    {
      "inputs": [],
      "name": "feeAccount",
      "outputs": [
        {
          "internalType": "address payable",
          "name": "",
          "type": "address"
        }
      ],
      "stateMutability": "view",
      "type": "function"
    },
    {
      "inputs": [],
      "name": "feePercent",
      "outputs": [
        {
          "internalType": "uint256",
          "name": "",
          "type": "uint256"
        }
      ],
      "stateMutability": "view",
      "type": "function"
    },
    {
      "inputs": [
        {
          "internalType": "uint256",
          "name": "_itemId",
          "type": "uint256"
        }
      ],
      "name": "getTotalPrice",
      "outputs": [
        {
          "internalType": "uint256",
          "name": "",
          "type": "uint256"
        }
      ],
      "stateMutability": "view",
      "type": "function"
    },
    {
      "inputs": [],
      "name": "itemCount",
      "outputs": [
        {
          "internalType": "uint256",
          "name": "",
          "type": "uint256"
        }
      ],
      "stateMutability": "view",
      "type": "function"
    },
    {
      "inputs": [
        {
          "internalType": "uint256",
          "name": "",
          "type": "uint256"
        }
      ],
      "name": "items",
      "outputs": [
        {
          "internalType": "uint256",
          "name": "itemId",
          "type": "uint256"
        },
        {
          "internalType": "string",
          "name": "collectionName",
          "type": "string"
        },
        {
          "internalType": "string",
          "name": "category",
          "type": "string"
        },
        {
          "internalType": "contract IERC721",
          "name": "nft",
          "type": "address"
        },
        {
          "internalType": "uint256",
          "name": "tokenId",
          "type": "uint256"
        },
        {
          "internalType": "uint256",
          "name": "price",
          "type": "uint256"
        },
        {
          "internalType": "address payable",
          "name": "seller",
          "type": "address"
        },
        {
          "internalType": "bool",
          "name": "sold",
          "type": "bool"
        }
      ],
      "stateMutability": "view",
      "type": "function"
    },
    {
      "inputs": [
        {
          "internalType": "string",
          "name": "_collectionName",
          "type": "string"
        },
        {
          "internalType": "string",
          "name": "_category",
          "type": "string"
        },
        {
          "internalType": "contract IERC721",
          "name": "_nft",
          "type": "address"
        },
        {
          "internalType": "uint256",
          "name": "_tokenId",
          "type": "uint256"
        },
        {
          "internalType": "uint256",
          "name": "_price",
          "type": "uint256"
        }
      ],
      "name": "makeItem",
      "outputs": [],
      "stateMutability": "nonpayable",
      "type": "function"
    },
    {
      "inputs": [
        {
          "internalType": "uint256",
          "name": "_itemId",
          "type": "uint256"
        }
      ],
      "name": "purchaseItem",
      "outputs": [],
      "stateMutability": "payable",
      "type": "function"
    }
  ],
  "bytecode": "0x60c06040523480156200001157600080fd5b506040516200161d3803806200161d83398181016040528101906200003791906200009c565b60016000819055503373ffffffffffffffffffffffffffffffffffffffff1660808173ffffffffffffffffffffffffffffffffffffffff1660601b815250508060a0818152505050620000ec565b6000815190506200009681620000d2565b92915050565b600060208284031215620000af57600080fd5b6000620000bf8482850162000085565b91505092915050565b6000819050919050565b620000dd81620000c8565b8114620000e957600080fd5b50565b60805160601c60a0516114fa62000123600039600081816104bd015261068a015260008181610493015261086a01526114fa6000f3fe6080604052600436106100705760003560e01c80637fd6f15c1161004e5780637fd6f15c146100f4578063bfb231d21461011f578063ca7dd37514610163578063d38ea5bf146101a057610070565b8063481cd0201461007557806365e17c9d1461009e5780636bfb0d01146100c9575b600080fd5b34801561008157600080fd5b5061009c60048036038101906100979190610bfe565b6101bc565b005b3480156100aa57600080fd5b506100b3610491565b6040516100c09190610e01565b60405180910390f35b3480156100d557600080fd5b506100de6104b5565b6040516100eb9190610ef3565b60405180910390f35b34801561010057600080fd5b506101096104bb565b6040516101169190610ef3565b60405180910390f35b34801561012b57600080fd5b5061014660048036038101906101419190610ca5565b6104df565b60405161015a989796959493929190610f0e565b60405180910390f35b34801561016f57600080fd5b5061018a60048036038101906101859190610ca5565b610684565b6040516101979190610ef3565b60405180910390f35b6101ba60048036038101906101b59190610ca5565b6106e7565b005b6101c4610a6f565b60008111610207576040517f08c379a00000000000000000000000000000000000000000000000000000000081526004016101fe90610e53565b60405180910390fd5b6001600081548092919061021a9061128d565b91905055508273ffffffffffffffffffffffffffffffffffffffff166323b872dd3330856040518463ffffffff1660e01b815260040161025c93929190610e1c565b600060405180830381600087803b15801561027657600080fd5b505af115801561028a573d6000803e3d6000fd5b5050505060405180610100016040528060015481526020018681526020018581526020018473ffffffffffffffffffffffffffffffffffffffff1681526020018381526020018281526020013373ffffffffffffffffffffffffffffffffffffffff16815260200160001515815250600260006001548152602001908152602001600020600082015181600001556020820151816001019080519060200190610334929190610ac9565b506040820151816002019080519060200190610351929190610ac9565b5060608201518160030160006101000a81548173ffffffffffffffffffffffffffffffffffffffff021916908373ffffffffffffffffffffffffffffffffffffffff1602179055506080820151816004015560a0820151816005015560c08201518160060160006101000a81548173ffffffffffffffffffffffffffffffffffffffff021916908373ffffffffffffffffffffffffffffffffffffffff16021790555060e08201518160060160146101000a81548160ff0219169083151502179055509050503373ffffffffffffffffffffffffffffffffffffffff168373ffffffffffffffffffffffffffffffffffffffff167f655a0cf9c8db81512be9a76dc1c5ae5380b8816ce6ad659cd61b715e2999d59a600154858560405161047a93929190610f9a565b60405180910390a361048a610abf565b5050505050565b7f000000000000000000000000000000000000000000000000000000000000000081565b60015481565b7f000000000000000000000000000000000000000000000000000000000000000081565b60026020528060005260406000206000915090508060000154908060010180546105089061122a565b80601f01602080910402602001604051908101604052809291908181526020018280546105349061122a565b80156105815780601f1061055657610100808354040283529160200191610581565b820191906000526020600020905b81548152906001019060200180831161056457829003601f168201915b5050505050908060020180546105969061122a565b80601f01602080910402602001604051908101604052809291908181526020018280546105c29061122a565b801561060f5780601f106105e45761010080835404028352916020019161060f565b820191906000526020600020905b8154815290600101906020018083116105f257829003601f168201915b5050505050908060030160009054906101000a900473ffffffffffffffffffffffffffffffffffffffff16908060040154908060050154908060060160009054906101000a900473ffffffffffffffffffffffffffffffffffffffff16908060060160149054906101000a900460ff16905088565b600060647f000000000000000000000000000000000000000000000000000000000000000060646106b59190611043565b60026000858152602001908152602001600020600501546106d691906110ca565b6106e09190611099565b9050919050565b6106ef610a6f565b60006106fa82610684565b9050600060026000848152602001908152602001600020905060008311801561072557506001548311155b610764576040517f08c379a000000000000000000000000000000000000000000000000000000000815260040161075b90610e93565b60405180910390fd5b813410156107a7576040517f08c379a000000000000000000000000000000000000000000000000000000000815260040161079e90610e73565b60405180910390fd5b8060060160149054906101000a900460ff16156107f9576040517f08c379a00000000000000000000000000000000000000000000000000000000081526004016107f090610ed3565b60405180910390fd5b8060060160009054906101000a900473ffffffffffffffffffffffffffffffffffffffff1673ffffffffffffffffffffffffffffffffffffffff166108fc82600501549081150290604051600060405180830381858888f19350505050158015610867573d6000803e3d6000fd5b507f000000000000000000000000000000000000000000000000000000000000000073ffffffffffffffffffffffffffffffffffffffff166108fc8260050154846108b29190611124565b9081150290604051600060405180830381858888f193505050501580156108dd573d6000803e3d6000fd5b5060018160060160146101000a81548160ff0219169083151502179055508060030160009054906101000a900473ffffffffffffffffffffffffffffffffffffffff1673ffffffffffffffffffffffffffffffffffffffff166323b872dd303384600401546040518463ffffffff1660e01b815260040161096093929190610e1c565b600060405180830381600087803b15801561097a57600080fd5b505af115801561098e573d6000803e3d6000fd5b505050503373ffffffffffffffffffffffffffffffffffffffff168160060160009054906101000a900473ffffffffffffffffffffffffffffffffffffffff1673ffffffffffffffffffffffffffffffffffffffff168260030160009054906101000a900473ffffffffffffffffffffffffffffffffffffffff1673ffffffffffffffffffffffffffffffffffffffff167f8b4c9c8a607d67b321582dd8461041b1dc2ceeca70c8b7f37f8e02095cf2e76d8685600401548660050154604051610a5a93929190610f9a565b60405180910390a45050610a6c610abf565b50565b60026000541415610ab5576040517f08c379a0000000000000000000000000000000000000000000000000000000008152600401610aac90610eb3565b60405180910390fd5b6002600081905550565b6001600081905550565b828054610ad59061122a565b90600052602060002090601f016020900481019282610af75760008555610b3e565b82601f10610b1057805160ff1916838001178555610b3e565b82800160010185558215610b3e579182015b82811115610b3d578251825591602001919060010190610b22565b5b509050610b4b9190610b4f565b5090565b5b80821115610b68576000816000905550600101610b50565b5090565b6000610b7f610b7a84610ff6565b610fd1565b905082815260208101848484011115610b9757600080fd5b610ba28482856111e8565b509392505050565b600081359050610bb981611496565b92915050565b600082601f830112610bd057600080fd5b8135610be0848260208601610b6c565b91505092915050565b600081359050610bf8816114ad565b92915050565b600080600080600060a08688031215610c1657600080fd5b600086013567ffffffffffffffff811115610c3057600080fd5b610c3c88828901610bbf565b955050602086013567ffffffffffffffff811115610c5957600080fd5b610c6588828901610bbf565b9450506040610c7688828901610baa565b9350506060610c8788828901610be9565b9250506080610c9888828901610be9565b9150509295509295909350565b600060208284031215610cb757600080fd5b6000610cc584828501610be9565b91505092915050565b610cd78161116a565b82525050565b610ce681611158565b82525050565b610cf58161117c565b82525050565b610d04816111c4565b82525050565b6000610d1582611027565b610d1f8185611032565b9350610d2f8185602086016111f7565b610d3881611392565b840191505092915050565b6000610d50601f83611032565b9150610d5b826113a3565b602082019050919050565b6000610d73603383611032565b9150610d7e826113cc565b604082019050919050565b6000610d96601283611032565b9150610da18261141b565b602082019050919050565b6000610db9601f83611032565b9150610dc482611444565b602082019050919050565b6000610ddc601183611032565b9150610de78261146d565b602082019050919050565b610dfb816111ba565b82525050565b6000602082019050610e166000830184610cce565b92915050565b6000606082019050610e316000830186610cdd565b610e3e6020830185610cdd565b610e4b6040830184610df2565b949350505050565b60006020820190508181036000830152610e6c81610d43565b9050919050565b60006020820190508181036000830152610e8c81610d66565b9050919050565b60006020820190508181036000830152610eac81610d89565b9050919050565b60006020820190508181036000830152610ecc81610dac565b9050919050565b60006020820190508181036000830152610eec81610dcf565b9050919050565b6000602082019050610f086000830184610df2565b92915050565b600061010082019050610f24600083018b610df2565b8181036020830152610f36818a610d0a565b90508181036040830152610f4a8189610d0a565b9050610f596060830188610cfb565b610f666080830187610df2565b610f7360a0830186610df2565b610f8060c0830185610cce565b610f8d60e0830184610cec565b9998505050505050505050565b6000606082019050610faf6000830186610df2565b610fbc6020830185610df2565b610fc96040830184610df2565b949350505050565b6000610fdb610fec565b9050610fe7828261125c565b919050565b6000604051905090565b600067ffffffffffffffff82111561101157611010611363565b5b61101a82611392565b9050602081019050919050565b600081519050919050565b600082825260208201905092915050565b600061104e826111ba565b9150611059836111ba565b9250827fffffffffffffffffffffffffffffffffffffffffffffffffffffffffffffffff0382111561108e5761108d6112d6565b5b828201905092915050565b60006110a4826111ba565b91506110af836111ba565b9250826110bf576110be611305565b5b828204905092915050565b60006110d5826111ba565b91506110e0836111ba565b9250817fffffffffffffffffffffffffffffffffffffffffffffffffffffffffffffffff0483118215151615611119576111186112d6565b5b828202905092915050565b600061112f826111ba565b915061113a836111ba565b92508282101561114d5761114c6112d6565b5b828203905092915050565b60006111638261119a565b9050919050565b60006111758261119a565b9050919050565b60008115159050919050565b600061119382611158565b9050919050565b600073ffffffffffffffffffffffffffffffffffffffff82169050919050565b6000819050919050565b60006111cf826111d6565b9050919050565b60006111e18261119a565b9050919050565b82818337600083830152505050565b60005b838110156112155780820151818401526020810190506111fa565b83811115611224576000848401525b50505050565b6000600282049050600182168061124257607f821691505b6020821081141561125657611255611334565b5b50919050565b61126582611392565b810181811067ffffffffffffffff8211171561128457611283611363565b5b80604052505050565b6000611298826111ba565b91507fffffffffffffffffffffffffffffffffffffffffffffffffffffffffffffffff8214156112cb576112ca6112d6565b5b600182019050919050565b7f4e487b7100000000000000000000000000000000000000000000000000000000600052601160045260246000fd5b7f4e487b7100000000000000000000000000000000000000000000000000000000600052601260045260246000fd5b7f4e487b7100000000000000000000000000000000000000000000000000000000600052602260045260246000fd5b7f4e487b7100000000000000000000000000000000000000000000000000000000600052604160045260246000fd5b6000601f19601f8301169050919050565b7f5072696365206d7573742062652067726561746572207468616e207a65726f00600082015250565b7f4e6f7420656e6f75676820657468657220746f20636f766572206974656d207060008201527f7269636520616e64206d61726b65742066656500000000000000000000000000602082015250565b7f4974656d20646f65736e27742065786973740000000000000000000000000000600082015250565b7f5265656e7472616e637947756172643a207265656e7472616e742063616c6c00600082015250565b7f4974656d20616c726561647920736f6c64000000000000000000000000000000600082015250565b61149f81611188565b81146114aa57600080fd5b50565b6114b6816111ba565b81146114c157600080fd5b5056fea26469706673582212204750c298ede4e376883b06cfcec0cfc3161bc077228b6e1382bb7396cab0718064736f6c63430008040033",
  "linkReferences": {},
  "deployedLinkReferences": {}
}