{
  "_format": "hh-sol-artifact-1",
  "contractName": "Marketplace",
  "sourceName": "src/backend/contracts/Marketplace.sol",
  "abi": [
    {
      "inputs": [
        {
          "internalType": "uint256",
          "name": "_feePercent",
          "type": "uint256"
        }
      ],
      "stateMutability": "nonpayable",
      "type": "constructor"
    },
    {
      "anonymous": false,
      "inputs": [
        {
          "indexed": false,
          "internalType": "uint256",
          "name": "itemId",
          "type": "uint256"
        },
        {
          "indexed": true,
          "internalType": "address",
          "name": "nft",
          "type": "address"
        },
        {
          "indexed": false,
          "internalType": "uint256",
          "name": "tokenId",
          "type": "uint256"
        },
        {
          "indexed": false,
          "internalType": "uint256",
          "name": "price",
          "type": "uint256"
        },
        {
          "indexed": true,
          "internalType": "address",
          "name": "seller",
          "type": "address"
        },
        {
          "indexed": true,
          "internalType": "address",
          "name": "buyer",
          "type": "address"
        }
      ],
      "name": "Bought",
      "type": "event"
    },
    {
      "anonymous": false,
      "inputs": [
        {
          "indexed": false,
          "internalType": "uint256",
          "name": "itemId",
          "type": "uint256"
        },
        {
          "indexed": true,
          "internalType": "address",
          "name": "nft",
          "type": "address"
        },
        {
          "indexed": false,
          "internalType": "uint256",
          "name": "tokenId",
          "type": "uint256"
        },
        {
          "indexed": false,
          "internalType": "uint256",
          "name": "price",
          "type": "uint256"
        },
        {
          "indexed": true,
          "internalType": "address",
          "name": "seller",
          "type": "address"
        }
      ],
      "name": "Offered",
      "type": "event"
    },
    {
      "inputs": [],
      "name": "feeAccount",
      "outputs": [
        {
          "internalType": "address payable",
          "name": "",
          "type": "address"
        }
      ],
      "stateMutability": "view",
      "type": "function"
    },
    {
      "inputs": [],
      "name": "feePercent",
      "outputs": [
        {
          "internalType": "uint256",
          "name": "",
          "type": "uint256"
        }
      ],
      "stateMutability": "view",
      "type": "function"
    },
    {
      "inputs": [
        {
          "internalType": "uint256",
          "name": "_itemId",
          "type": "uint256"
        }
      ],
      "name": "getTotalPrice",
      "outputs": [
        {
          "internalType": "uint256",
          "name": "",
          "type": "uint256"
        }
      ],
      "stateMutability": "view",
      "type": "function"
    },
    {
      "inputs": [],
      "name": "itemCount",
      "outputs": [
        {
          "internalType": "uint256",
          "name": "",
          "type": "uint256"
        }
      ],
      "stateMutability": "view",
      "type": "function"
    },
    {
      "inputs": [
        {
          "internalType": "uint256",
          "name": "",
          "type": "uint256"
        }
      ],
      "name": "items",
      "outputs": [
        {
          "internalType": "uint256",
          "name": "itemId",
          "type": "uint256"
        },
        {
          "internalType": "string",
          "name": "collectionName",
          "type": "string"
        },
        {
          "internalType": "contract IERC721",
          "name": "nft",
          "type": "address"
        },
        {
          "internalType": "uint256",
          "name": "tokenId",
          "type": "uint256"
        },
        {
          "internalType": "uint256",
          "name": "price",
          "type": "uint256"
        },
        {
          "internalType": "address payable",
          "name": "seller",
          "type": "address"
        },
        {
          "internalType": "bool",
          "name": "sold",
          "type": "bool"
        }
      ],
      "stateMutability": "view",
      "type": "function"
    },
    {
      "inputs": [
        {
          "internalType": "string",
          "name": "_collectionName",
          "type": "string"
        },
        {
          "internalType": "contract IERC721",
          "name": "_nft",
          "type": "address"
        },
        {
          "internalType": "uint256",
          "name": "_tokenId",
          "type": "uint256"
        },
        {
          "internalType": "uint256",
          "name": "_price",
          "type": "uint256"
        }
      ],
      "name": "makeItem",
      "outputs": [],
      "stateMutability": "nonpayable",
      "type": "function"
    },
    {
      "inputs": [
        {
          "internalType": "uint256",
          "name": "_itemId",
          "type": "uint256"
        }
      ],
      "name": "purchaseItem",
      "outputs": [],
      "stateMutability": "payable",
      "type": "function"
    }
  ],
  "bytecode": "0x60c06040523480156200001157600080fd5b50604051620015593803806200155983398181016040528101906200003791906200009c565b60016000819055503373ffffffffffffffffffffffffffffffffffffffff1660808173ffffffffffffffffffffffffffffffffffffffff1660601b815250508060a0818152505050620000ec565b6000815190506200009681620000d2565b92915050565b600060208284031215620000af57600080fd5b6000620000bf8482850162000085565b91505092915050565b6000819050919050565b620000dd81620000c8565b8114620000e957600080fd5b50565b60805160601c60a05161143662000123600039600081816101e701526103260152600081816101bd015261054c01526114366000f3fe6080604052600436106100705760003560e01c8063bfb231d21161004e578063bfb231d2146100f6578063ca7dd37514610139578063d38ea5bf14610176578063f2ce5b321461019257610070565b806365e17c9d146100755780636bfb0d01146100a05780637fd6f15c146100cb575b600080fd5b34801561008157600080fd5b5061008a6101bb565b6040516100979190610d53565b60405180910390f35b3480156100ac57600080fd5b506100b56101df565b6040516100c29190610e45565b60405180910390f35b3480156100d757600080fd5b506100e06101e5565b6040516100ed9190610e45565b60405180910390f35b34801561010257600080fd5b5061011d60048036038101906101189190610bf7565b610209565b6040516101309796959493929190610e60565b60405180910390f35b34801561014557600080fd5b50610160600480360381019061015b9190610bf7565b610320565b60405161016d9190610e45565b60405180910390f35b610190600480360381019061018b9190610bf7565b610383565b005b34801561019e57600080fd5b506101b960048036038101906101b49190610b7c565b610751565b005b7f000000000000000000000000000000000000000000000000000000000000000081565b60015481565b7f000000000000000000000000000000000000000000000000000000000000000081565b600260205280600052604060002060009150905080600001549080600101805461023290611166565b80601f016020809104026020016040519081016040528092919081815260200182805461025e90611166565b80156102ab5780601f10610280576101008083540402835291602001916102ab565b820191906000526020600020905b81548152906001019060200180831161028e57829003601f168201915b5050505050908060020160009054906101000a900473ffffffffffffffffffffffffffffffffffffffff16908060030154908060040154908060050160009054906101000a900473ffffffffffffffffffffffffffffffffffffffff16908060050160149054906101000a900460ff16905087565b600060647f000000000000000000000000000000000000000000000000000000000000000060646103519190610f7f565b60026000858152602001908152602001600020600401546103729190611006565b61037c9190610fd5565b9050919050565b600260005414156103c9576040517f08c379a00000000000000000000000000000000000000000000000000000000081526004016103c090610e05565b60405180910390fd5b600260008190555060006103dc82610320565b9050600060026000848152602001908152602001600020905060008311801561040757506001548311155b610446576040517f08c379a000000000000000000000000000000000000000000000000000000000815260040161043d90610de5565b60405180910390fd5b81341015610489576040517f08c379a000000000000000000000000000000000000000000000000000000000815260040161048090610dc5565b60405180910390fd5b8060050160149054906101000a900460ff16156104db576040517f08c379a00000000000000000000000000000000000000000000000000000000081526004016104d290610e25565b60405180910390fd5b8060050160009054906101000a900473ffffffffffffffffffffffffffffffffffffffff1673ffffffffffffffffffffffffffffffffffffffff166108fc82600401549081150290604051600060405180830381858888f19350505050158015610549573d6000803e3d6000fd5b507f000000000000000000000000000000000000000000000000000000000000000073ffffffffffffffffffffffffffffffffffffffff166108fc8260040154846105949190611060565b9081150290604051600060405180830381858888f193505050501580156105bf573d6000803e3d6000fd5b5060018160050160146101000a81548160ff0219169083151502179055508060020160009054906101000a900473ffffffffffffffffffffffffffffffffffffffff1673ffffffffffffffffffffffffffffffffffffffff166323b872dd303384600301546040518463ffffffff1660e01b815260040161064293929190610d6e565b600060405180830381600087803b15801561065c57600080fd5b505af1158015610670573d6000803e3d6000fd5b505050503373ffffffffffffffffffffffffffffffffffffffff168160050160009054906101000a900473ffffffffffffffffffffffffffffffffffffffff1673ffffffffffffffffffffffffffffffffffffffff168260020160009054906101000a900473ffffffffffffffffffffffffffffffffffffffff1673ffffffffffffffffffffffffffffffffffffffff167f8b4c9c8a607d67b321582dd8461041b1dc2ceeca70c8b7f37f8e02095cf2e76d868560030154866004015460405161073c93929190610ed6565b60405180910390a45050600160008190555050565b60026000541415610797576040517f08c379a000000000000000000000000000000000000000000000000000000000815260040161078e90610e05565b60405180910390fd5b6002600081905550600081116107e2576040517f08c379a00000000000000000000000000000000000000000000000000000000081526004016107d990610da5565b60405180910390fd5b600160008154809291906107f5906111c9565b91905055508273ffffffffffffffffffffffffffffffffffffffff166323b872dd3330856040518463ffffffff1660e01b815260040161083793929190610d6e565b600060405180830381600087803b15801561085157600080fd5b505af1158015610865573d6000803e3d6000fd5b505050506040518060e0016040528060015481526020018581526020018473ffffffffffffffffffffffffffffffffffffffff1681526020018381526020018281526020013373ffffffffffffffffffffffffffffffffffffffff16815260200160001515815250600260006001548152602001908152602001600020600082015181600001556020820151816001019080519060200190610908929190610a47565b5060408201518160020160006101000a81548173ffffffffffffffffffffffffffffffffffffffff021916908373ffffffffffffffffffffffffffffffffffffffff160217905550606082015181600301556080820151816004015560a08201518160050160006101000a81548173ffffffffffffffffffffffffffffffffffffffff021916908373ffffffffffffffffffffffffffffffffffffffff16021790555060c08201518160050160146101000a81548160ff0219169083151502179055509050503373ffffffffffffffffffffffffffffffffffffffff168373ffffffffffffffffffffffffffffffffffffffff167f655a0cf9c8db81512be9a76dc1c5ae5380b8816ce6ad659cd61b715e2999d59a6001548585604051610a3193929190610ed6565b60405180910390a3600160008190555050505050565b828054610a5390611166565b90600052602060002090601f016020900481019282610a755760008555610abc565b82601f10610a8e57805160ff1916838001178555610abc565b82800160010185558215610abc579182015b82811115610abb578251825591602001919060010190610aa0565b5b509050610ac99190610acd565b5090565b5b80821115610ae6576000816000905550600101610ace565b5090565b6000610afd610af884610f32565b610f0d565b905082815260208101848484011115610b1557600080fd5b610b20848285611124565b509392505050565b600081359050610b37816113d2565b92915050565b600082601f830112610b4e57600080fd5b8135610b5e848260208601610aea565b91505092915050565b600081359050610b76816113e9565b92915050565b60008060008060808587031215610b9257600080fd5b600085013567ffffffffffffffff811115610bac57600080fd5b610bb887828801610b3d565b9450506020610bc987828801610b28565b9350506040610bda87828801610b67565b9250506060610beb87828801610b67565b91505092959194509250565b600060208284031215610c0957600080fd5b6000610c1784828501610b67565b91505092915050565b610c29816110a6565b82525050565b610c3881611094565b82525050565b610c47816110b8565b82525050565b610c5681611100565b82525050565b6000610c6782610f63565b610c718185610f6e565b9350610c81818560208601611133565b610c8a816112ce565b840191505092915050565b6000610ca2601f83610f6e565b9150610cad826112df565b602082019050919050565b6000610cc5603383610f6e565b9150610cd082611308565b604082019050919050565b6000610ce8601283610f6e565b9150610cf382611357565b602082019050919050565b6000610d0b601f83610f6e565b9150610d1682611380565b602082019050919050565b6000610d2e601183610f6e565b9150610d39826113a9565b602082019050919050565b610d4d816110f6565b82525050565b6000602082019050610d686000830184610c20565b92915050565b6000606082019050610d836000830186610c2f565b610d906020830185610c2f565b610d9d6040830184610d44565b949350505050565b60006020820190508181036000830152610dbe81610c95565b9050919050565b60006020820190508181036000830152610dde81610cb8565b9050919050565b60006020820190508181036000830152610dfe81610cdb565b9050919050565b60006020820190508181036000830152610e1e81610cfe565b9050919050565b60006020820190508181036000830152610e3e81610d21565b9050919050565b6000602082019050610e5a6000830184610d44565b92915050565b600060e082019050610e75600083018a610d44565b8181036020830152610e878189610c5c565b9050610e966040830188610c4d565b610ea36060830187610d44565b610eb06080830186610d44565b610ebd60a0830185610c20565b610eca60c0830184610c3e565b98975050505050505050565b6000606082019050610eeb6000830186610d44565b610ef86020830185610d44565b610f056040830184610d44565b949350505050565b6000610f17610f28565b9050610f238282611198565b919050565b6000604051905090565b600067ffffffffffffffff821115610f4d57610f4c61129f565b5b610f56826112ce565b9050602081019050919050565b600081519050919050565b600082825260208201905092915050565b6000610f8a826110f6565b9150610f95836110f6565b9250827fffffffffffffffffffffffffffffffffffffffffffffffffffffffffffffffff03821115610fca57610fc9611212565b5b828201905092915050565b6000610fe0826110f6565b9150610feb836110f6565b925082610ffb57610ffa611241565b5b828204905092915050565b6000611011826110f6565b915061101c836110f6565b9250817fffffffffffffffffffffffffffffffffffffffffffffffffffffffffffffffff048311821515161561105557611054611212565b5b828202905092915050565b600061106b826110f6565b9150611076836110f6565b92508282101561108957611088611212565b5b828203905092915050565b600061109f826110d6565b9050919050565b60006110b1826110d6565b9050919050565b60008115159050919050565b60006110cf82611094565b9050919050565b600073ffffffffffffffffffffffffffffffffffffffff82169050919050565b6000819050919050565b600061110b82611112565b9050919050565b600061111d826110d6565b9050919050565b82818337600083830152505050565b60005b83811015611151578082015181840152602081019050611136565b83811115611160576000848401525b50505050565b6000600282049050600182168061117e57607f821691505b6020821081141561119257611191611270565b5b50919050565b6111a1826112ce565b810181811067ffffffffffffffff821117156111c0576111bf61129f565b5b80604052505050565b60006111d4826110f6565b91507fffffffffffffffffffffffffffffffffffffffffffffffffffffffffffffffff82141561120757611206611212565b5b600182019050919050565b7f4e487b7100000000000000000000000000000000000000000000000000000000600052601160045260246000fd5b7f4e487b7100000000000000000000000000000000000000000000000000000000600052601260045260246000fd5b7f4e487b7100000000000000000000000000000000000000000000000000000000600052602260045260246000fd5b7f4e487b7100000000000000000000000000000000000000000000000000000000600052604160045260246000fd5b6000601f19601f8301169050919050565b7f5072696365206d7573742062652067726561746572207468616e207a65726f00600082015250565b7f4e6f7420656e6f75676820657468657220746f20636f766572206974656d207060008201527f7269636520616e64206d61726b65742066656500000000000000000000000000602082015250565b7f4974656d20646f65736e27742065786973740000000000000000000000000000600082015250565b7f5265656e7472616e637947756172643a207265656e7472616e742063616c6c00600082015250565b7f4974656d20616c726561647920736f6c64000000000000000000000000000000600082015250565b6113db816110c4565b81146113e657600080fd5b50565b6113f2816110f6565b81146113fd57600080fd5b5056fea2646970667358221220ec16bd25d623eaabc96a30f3c11e2861757ca278027123f1fd7c8be53404ed1464736f6c63430008040033",
  "linkReferences": {},
  "deployedLinkReferences": {}
}