{"src/backend/contracts/Marketplace.sol":{"Marketplace":{"abi":[{"inputs":[{"internalType":"uint256","name":"_feePercent","type":"uint256"}],"stateMutability":"nonpayable","type":"constructor"},{"anonymous":false,"inputs":[{"indexed":false,"internalType":"uint256","name":"itemId","type":"uint256"},{"indexed":true,"internalType":"address","name":"nft","type":"address"},{"indexed":false,"internalType":"uint256","name":"tokenId","type":"uint256"},{"indexed":false,"internalType":"uint256","name":"price","type":"uint256"},{"indexed":true,"internalType":"address","name":"seller","type":"address"},{"indexed":true,"internalType":"address","name":"buyer","type":"address"}],"name":"Bought","type":"event"},{"anonymous":false,"inputs":[{"indexed":false,"internalType":"uint256","name":"itemId","type":"uint256"},{"indexed":true,"internalType":"address","name":"nft","type":"address"},{"indexed":false,"internalType":"uint256","name":"tokenId","type":"uint256"},{"indexed":false,"internalType":"uint256","name":"price","type":"uint256"},{"indexed":true,"internalType":"address","name":"seller","type":"address"}],"name":"Offered","type":"event"},{"inputs":[],"name":"feeAccount","outputs":[{"internalType":"address payable","name":"","type":"address"}],"stateMutability":"view","type":"function"},{"inputs":[],"name":"feePercent","outputs":[{"internalType":"uint256","name":"","type":"uint256"}],"stateMutability":"view","type":"function"},{"inputs":[{"internalType":"uint256","name":"_itemId","type":"uint256"}],"name":"getTotalPrice","outputs":[{"internalType":"uint256","name":"","type":"uint256"}],"stateMutability":"view","type":"function"},{"inputs":[],"name":"itemCount","outputs":[{"internalType":"uint256","name":"","type":"uint256"}],"stateMutability":"view","type":"function"},{"inputs":[{"internalType":"uint256","name":"","type":"uint256"}],"name":"items","outputs":[{"internalType":"uint256","name":"itemId","type":"uint256"},{"internalType":"string","name":"collectionName","type":"string"},{"internalType":"string","name":"category","type":"string"},{"internalType":"contract IERC721","name":"nft","type":"address"},{"internalType":"uint256","name":"tokenId","type":"uint256"},{"internalType":"uint256","name":"price","type":"uint256"},{"internalType":"address payable","name":"seller","type":"address"},{"internalType":"bool","name":"sold","type":"bool"}],"stateMutability":"view","type":"function"},{"inputs":[{"internalType":"string","name":"_collectionName","type":"string"},{"internalType":"string","name":"_category","type":"string"},{"internalType":"contract IERC721","name":"_nft","type":"address"},{"internalType":"uint256","name":"_tokenId","type":"uint256"},{"internalType":"uint256","name":"_price","type":"uint256"}],"name":"makeItem","outputs":[],"stateMutability":"nonpayable","type":"function"},{"inputs":[{"internalType":"uint256","name":"_itemId","type":"uint256"}],"name":"purchaseItem","outputs":[],"stateMutability":"payable","type":"function"}],"evm":{"bytecode":{"linkReferences":{},"object":"60c06040523480156200001157600080fd5b506040516200161d3803806200161d83398181016040528101906200003791906200009c565b60016000819055503373ffffffffffffffffffffffffffffffffffffffff1660808173ffffffffffffffffffffffffffffffffffffffff1660601b815250508060a0818152505050620000ec565b6000815190506200009681620000d2565b92915050565b600060208284031215620000af57600080fd5b6000620000bf8482850162000085565b91505092915050565b6000819050919050565b620000dd81620000c8565b8114620000e957600080fd5b50565b60805160601c60a0516114fa62000123600039600081816104bd015261068a015260008181610493015261086a01526114fa6000f3fe6080604052600436106100705760003560e01c80637fd6f15c1161004e5780637fd6f15c146100f4578063bfb231d21461011f578063ca7dd37514610163578063d38ea5bf146101a057610070565b8063481cd0201461007557806365e17c9d1461009e5780636bfb0d01146100c9575b600080fd5b34801561008157600080fd5b5061009c60048036038101906100979190610bfe565b6101bc565b005b3480156100aa57600080fd5b506100b3610491565b6040516100c09190610e01565b60405180910390f35b3480156100d557600080fd5b506100de6104b5565b6040516100eb9190610ef3565b60405180910390f35b34801561010057600080fd5b506101096104bb565b6040516101169190610ef3565b60405180910390f35b34801561012b57600080fd5b5061014660048036038101906101419190610ca5565b6104df565b60405161015a989796959493929190610f0e565b60405180910390f35b34801561016f57600080fd5b5061018a60048036038101906101859190610ca5565b610684565b6040516101979190610ef3565b60405180910390f35b6101ba60048036038101906101b59190610ca5565b6106e7565b005b6101c4610a6f565b60008111610207576040517f08c379a00000000000000000000000000000000000000000000000000000000081526004016101fe90610e53565b60405180910390fd5b6001600081548092919061021a9061128d565b91905055508273ffffffffffffffffffffffffffffffffffffffff166323b872dd3330856040518463ffffffff1660e01b815260040161025c93929190610e1c565b600060405180830381600087803b15801561027657600080fd5b505af115801561028a573d6000803e3d6000fd5b5050505060405180610100016040528060015481526020018681526020018581526020018473ffffffffffffffffffffffffffffffffffffffff1681526020018381526020018281526020013373ffffffffffffffffffffffffffffffffffffffff16815260200160001515815250600260006001548152602001908152602001600020600082015181600001556020820151816001019080519060200190610334929190610ac9565b506040820151816002019080519060200190610351929190610ac9565b5060608201518160030160006101000a81548173ffffffffffffffffffffffffffffffffffffffff021916908373ffffffffffffffffffffffffffffffffffffffff1602179055506080820151816004015560a0820151816005015560c08201518160060160006101000a81548173ffffffffffffffffffffffffffffffffffffffff021916908373ffffffffffffffffffffffffffffffffffffffff16021790555060e08201518160060160146101000a81548160ff0219169083151502179055509050503373ffffffffffffffffffffffffffffffffffffffff168373ffffffffffffffffffffffffffffffffffffffff167f655a0cf9c8db81512be9a76dc1c5ae5380b8816ce6ad659cd61b715e2999d59a600154858560405161047a93929190610f9a565b60405180910390a361048a610abf565b5050505050565b7f000000000000000000000000000000000000000000000000000000000000000081565b60015481565b7f000000000000000000000000000000000000000000000000000000000000000081565b60026020528060005260406000206000915090508060000154908060010180546105089061122a565b80601f01602080910402602001604051908101604052809291908181526020018280546105349061122a565b80156105815780601f1061055657610100808354040283529160200191610581565b820191906000526020600020905b81548152906001019060200180831161056457829003601f168201915b5050505050908060020180546105969061122a565b80601f01602080910402602001604051908101604052809291908181526020018280546105c29061122a565b801561060f5780601f106105e45761010080835404028352916020019161060f565b820191906000526020600020905b8154815290600101906020018083116105f257829003601f168201915b5050505050908060030160009054906101000a900473ffffffffffffffffffffffffffffffffffffffff16908060040154908060050154908060060160009054906101000a900473ffffffffffffffffffffffffffffffffffffffff16908060060160149054906101000a900460ff16905088565b600060647f000000000000000000000000000000000000000000000000000000000000000060646106b59190611043565b60026000858152602001908152602001600020600501546106d691906110ca565b6106e09190611099565b9050919050565b6106ef610a6f565b60006106fa82610684565b9050600060026000848152602001908152602001600020905060008311801561072557506001548311155b610764576040517f08c379a000000000000000000000000000000000000000000000000000000000815260040161075b90610e93565b60405180910390fd5b813410156107a7576040517f08c379a000000000000000000000000000000000000000000000000000000000815260040161079e90610e73565b60405180910390fd5b8060060160149054906101000a900460ff16156107f9576040517f08c379a00000000000000000000000000000000000000000000000000000000081526004016107f090610ed3565b60405180910390fd5b8060060160009054906101000a900473ffffffffffffffffffffffffffffffffffffffff1673ffffffffffffffffffffffffffffffffffffffff166108fc82600501549081150290604051600060405180830381858888f19350505050158015610867573d6000803e3d6000fd5b507f000000000000000000000000000000000000000000000000000000000000000073ffffffffffffffffffffffffffffffffffffffff166108fc8260050154846108b29190611124565b9081150290604051600060405180830381858888f193505050501580156108dd573d6000803e3d6000fd5b5060018160060160146101000a81548160ff0219169083151502179055508060030160009054906101000a900473ffffffffffffffffffffffffffffffffffffffff1673ffffffffffffffffffffffffffffffffffffffff166323b872dd303384600401546040518463ffffffff1660e01b815260040161096093929190610e1c565b600060405180830381600087803b15801561097a57600080fd5b505af115801561098e573d6000803e3d6000fd5b505050503373ffffffffffffffffffffffffffffffffffffffff168160060160009054906101000a900473ffffffffffffffffffffffffffffffffffffffff1673ffffffffffffffffffffffffffffffffffffffff168260030160009054906101000a900473ffffffffffffffffffffffffffffffffffffffff1673ffffffffffffffffffffffffffffffffffffffff167f8b4c9c8a607d67b321582dd8461041b1dc2ceeca70c8b7f37f8e02095cf2e76d8685600401548660050154604051610a5a93929190610f9a565b60405180910390a45050610a6c610abf565b50565b60026000541415610ab5576040517f08c379a0000000000000000000000000000000000000000000000000000000008152600401610aac90610eb3565b60405180910390fd5b6002600081905550565b6001600081905550565b828054610ad59061122a565b90600052602060002090601f016020900481019282610af75760008555610b3e565b82601f10610b1057805160ff1916838001178555610b3e565b82800160010185558215610b3e579182015b82811115610b3d578251825591602001919060010190610b22565b5b509050610b4b9190610b4f565b5090565b5b80821115610b68576000816000905550600101610b50565b5090565b6000610b7f610b7a84610ff6565b610fd1565b905082815260208101848484011115610b9757600080fd5b610ba28482856111e8565b509392505050565b600081359050610bb981611496565b92915050565b600082601f830112610bd057600080fd5b8135610be0848260208601610b6c565b91505092915050565b600081359050610bf8816114ad565b92915050565b600080600080600060a08688031215610c1657600080fd5b600086013567ffffffffffffffff811115610c3057600080fd5b610c3c88828901610bbf565b955050602086013567ffffffffffffffff811115610c5957600080fd5b610c6588828901610bbf565b9450506040610c7688828901610baa565b9350506060610c8788828901610be9565b9250506080610c9888828901610be9565b9150509295509295909350565b600060208284031215610cb757600080fd5b6000610cc584828501610be9565b91505092915050565b610cd78161116a565b82525050565b610ce681611158565b82525050565b610cf58161117c565b82525050565b610d04816111c4565b82525050565b6000610d1582611027565b610d1f8185611032565b9350610d2f8185602086016111f7565b610d3881611392565b840191505092915050565b6000610d50601f83611032565b9150610d5b826113a3565b602082019050919050565b6000610d73603383611032565b9150610d7e826113cc565b604082019050919050565b6000610d96601283611032565b9150610da18261141b565b602082019050919050565b6000610db9601f83611032565b9150610dc482611444565b602082019050919050565b6000610ddc601183611032565b9150610de78261146d565b602082019050919050565b610dfb816111ba565b82525050565b6000602082019050610e166000830184610cce565b92915050565b6000606082019050610e316000830186610cdd565b610e3e6020830185610cdd565b610e4b6040830184610df2565b949350505050565b60006020820190508181036000830152610e6c81610d43565b9050919050565b60006020820190508181036000830152610e8c81610d66565b9050919050565b60006020820190508181036000830152610eac81610d89565b9050919050565b60006020820190508181036000830152610ecc81610dac565b9050919050565b60006020820190508181036000830152610eec81610dcf565b9050919050565b6000602082019050610f086000830184610df2565b92915050565b600061010082019050610f24600083018b610df2565b8181036020830152610f36818a610d0a565b90508181036040830152610f4a8189610d0a565b9050610f596060830188610cfb565b610f666080830187610df2565b610f7360a0830186610df2565b610f8060c0830185610cce565b610f8d60e0830184610cec565b9998505050505050505050565b6000606082019050610faf6000830186610df2565b610fbc6020830185610df2565b610fc96040830184610df2565b949350505050565b6000610fdb610fec565b9050610fe7828261125c565b919050565b6000604051905090565b600067ffffffffffffffff82111561101157611010611363565b5b61101a82611392565b9050602081019050919050565b600081519050919050565b600082825260208201905092915050565b600061104e826111ba565b9150611059836111ba565b9250827fffffffffffffffffffffffffffffffffffffffffffffffffffffffffffffffff0382111561108e5761108d6112d6565b5b828201905092915050565b60006110a4826111ba565b91506110af836111ba565b9250826110bf576110be611305565b5b828204905092915050565b60006110d5826111ba565b91506110e0836111ba565b9250817fffffffffffffffffffffffffffffffffffffffffffffffffffffffffffffffff0483118215151615611119576111186112d6565b5b828202905092915050565b600061112f826111ba565b915061113a836111ba565b92508282101561114d5761114c6112d6565b5b828203905092915050565b60006111638261119a565b9050919050565b60006111758261119a565b9050919050565b60008115159050919050565b600061119382611158565b9050919050565b600073ffffffffffffffffffffffffffffffffffffffff82169050919050565b6000819050919050565b60006111cf826111d6565b9050919050565b60006111e18261119a565b9050919050565b82818337600083830152505050565b60005b838110156112155780820151818401526020810190506111fa565b83811115611224576000848401525b50505050565b6000600282049050600182168061124257607f821691505b6020821081141561125657611255611334565b5b50919050565b61126582611392565b810181811067ffffffffffffffff8211171561128457611283611363565b5b80604052505050565b6000611298826111ba565b91507fffffffffffffffffffffffffffffffffffffffffffffffffffffffffffffffff8214156112cb576112ca6112d6565b5b600182019050919050565b7f4e487b7100000000000000000000000000000000000000000000000000000000600052601160045260246000fd5b7f4e487b7100000000000000000000000000000000000000000000000000000000600052601260045260246000fd5b7f4e487b7100000000000000000000000000000000000000000000000000000000600052602260045260246000fd5b7f4e487b7100000000000000000000000000000000000000000000000000000000600052604160045260246000fd5b6000601f19601f8301169050919050565b7f5072696365206d7573742062652067726561746572207468616e207a65726f00600082015250565b7f4e6f7420656e6f75676820657468657220746f20636f766572206974656d207060008201527f7269636520616e64206d61726b65742066656500000000000000000000000000602082015250565b7f4974656d20646f65736e27742065786973740000000000000000000000000000600082015250565b7f5265656e7472616e637947756172643a207265656e7472616e742063616c6c00600082015250565b7f4974656d20616c726561647920736f6c64000000000000000000000000000000600082015250565b61149f81611188565b81146114aa57600080fd5b50565b6114b6816111ba565b81146114c157600080fd5b5056fea26469706673582212204750c298ede4e376883b06cfcec0cfc3161bc077228b6e1382bb7396cab0718064736f6c63430008040033","opcodes":"PUSH1 0xC0 PUSH1 0x40 MSTORE CALLVALUE DUP1 ISZERO PUSH3 0x11 JUMPI PUSH1 0x0 DUP1 REVERT JUMPDEST POP PUSH1 0x40 MLOAD PUSH3 0x161D CODESIZE SUB DUP1 PUSH3 0x161D DUP4 CODECOPY DUP2 DUP2 ADD PUSH1 0x40 MSTORE DUP2 ADD SWAP1 PUSH3 0x37 SWAP2 SWAP1 PUSH3 0x9C JUMP JUMPDEST PUSH1 0x1 PUSH1 0x0 DUP2 SWAP1 SSTORE POP CALLER PUSH20 0xFFFFFFFFFFFFFFFFFFFFFFFFFFFFFFFFFFFFFFFF AND PUSH1 0x80 DUP2 PUSH20 0xFFFFFFFFFFFFFFFFFFFFFFFFFFFFFFFFFFFFFFFF AND PUSH1 0x60 SHL DUP2 MSTORE POP POP DUP1 PUSH1 0xA0 DUP2 DUP2 MSTORE POP POP POP PUSH3 0xEC JUMP JUMPDEST PUSH1 0x0 DUP2 MLOAD SWAP1 POP PUSH3 0x96 DUP2 PUSH3 0xD2 JUMP JUMPDEST SWAP3 SWAP2 POP POP JUMP JUMPDEST PUSH1 0x0 PUSH1 0x20 DUP3 DUP5 SUB SLT ISZERO PUSH3 0xAF JUMPI PUSH1 0x0 DUP1 REVERT JUMPDEST PUSH1 0x0 PUSH3 0xBF DUP5 DUP3 DUP6 ADD PUSH3 0x85 JUMP JUMPDEST SWAP2 POP POP SWAP3 SWAP2 POP POP JUMP JUMPDEST PUSH1 0x0 DUP2 SWAP1 POP SWAP2 SWAP1 POP JUMP JUMPDEST PUSH3 0xDD DUP2 PUSH3 0xC8 JUMP JUMPDEST DUP2 EQ PUSH3 0xE9 JUMPI PUSH1 0x0 DUP1 REVERT JUMPDEST POP JUMP JUMPDEST PUSH1 0x80 MLOAD PUSH1 0x60 SHR PUSH1 0xA0 MLOAD PUSH2 0x14FA PUSH3 0x123 PUSH1 0x0 CODECOPY PUSH1 0x0 DUP2 DUP2 PUSH2 0x4BD ADD MSTORE PUSH2 0x68A ADD MSTORE PUSH1 0x0 DUP2 DUP2 PUSH2 0x493 ADD MSTORE PUSH2 0x86A ADD MSTORE PUSH2 0x14FA PUSH1 0x0 RETURN INVALID PUSH1 0x80 PUSH1 0x40 MSTORE PUSH1 0x4 CALLDATASIZE LT PUSH2 0x70 JUMPI PUSH1 0x0 CALLDATALOAD PUSH1 0xE0 SHR DUP1 PUSH4 0x7FD6F15C GT PUSH2 0x4E JUMPI DUP1 PUSH4 0x7FD6F15C EQ PUSH2 0xF4 JUMPI DUP1 PUSH4 0xBFB231D2 EQ PUSH2 0x11F JUMPI DUP1 PUSH4 0xCA7DD375 EQ PUSH2 0x163 JUMPI DUP1 PUSH4 0xD38EA5BF EQ PUSH2 0x1A0 JUMPI PUSH2 0x70 JUMP JUMPDEST DUP1 PUSH4 0x481CD020 EQ PUSH2 0x75 JUMPI DUP1 PUSH4 0x65E17C9D EQ PUSH2 0x9E JUMPI DUP1 PUSH4 0x6BFB0D01 EQ PUSH2 0xC9 JUMPI JUMPDEST PUSH1 0x0 DUP1 REVERT JUMPDEST CALLVALUE DUP1 ISZERO PUSH2 0x81 JUMPI PUSH1 0x0 DUP1 REVERT JUMPDEST POP PUSH2 0x9C PUSH1 0x4 DUP1 CALLDATASIZE SUB DUP2 ADD SWAP1 PUSH2 0x97 SWAP2 SWAP1 PUSH2 0xBFE JUMP JUMPDEST PUSH2 0x1BC JUMP JUMPDEST STOP JUMPDEST CALLVALUE DUP1 ISZERO PUSH2 0xAA JUMPI PUSH1 0x0 DUP1 REVERT JUMPDEST POP PUSH2 0xB3 PUSH2 0x491 JUMP JUMPDEST PUSH1 0x40 MLOAD PUSH2 0xC0 SWAP2 SWAP1 PUSH2 0xE01 JUMP JUMPDEST PUSH1 0x40 MLOAD DUP1 SWAP2 SUB SWAP1 RETURN JUMPDEST CALLVALUE DUP1 ISZERO PUSH2 0xD5 JUMPI PUSH1 0x0 DUP1 REVERT JUMPDEST POP PUSH2 0xDE PUSH2 0x4B5 JUMP JUMPDEST PUSH1 0x40 MLOAD PUSH2 0xEB SWAP2 SWAP1 PUSH2 0xEF3 JUMP JUMPDEST PUSH1 0x40 MLOAD DUP1 SWAP2 SUB SWAP1 RETURN JUMPDEST CALLVALUE DUP1 ISZERO PUSH2 0x100 JUMPI PUSH1 0x0 DUP1 REVERT JUMPDEST POP PUSH2 0x109 PUSH2 0x4BB JUMP JUMPDEST PUSH1 0x40 MLOAD PUSH2 0x116 SWAP2 SWAP1 PUSH2 0xEF3 JUMP JUMPDEST PUSH1 0x40 MLOAD DUP1 SWAP2 SUB SWAP1 RETURN JUMPDEST CALLVALUE DUP1 ISZERO PUSH2 0x12B JUMPI PUSH1 0x0 DUP1 REVERT JUMPDEST POP PUSH2 0x146 PUSH1 0x4 DUP1 CALLDATASIZE SUB DUP2 ADD SWAP1 PUSH2 0x141 SWAP2 SWAP1 PUSH2 0xCA5 JUMP JUMPDEST PUSH2 0x4DF JUMP JUMPDEST PUSH1 0x40 MLOAD PUSH2 0x15A SWAP9 SWAP8 SWAP7 SWAP6 SWAP5 SWAP4 SWAP3 SWAP2 SWAP1 PUSH2 0xF0E JUMP JUMPDEST PUSH1 0x40 MLOAD DUP1 SWAP2 SUB SWAP1 RETURN JUMPDEST CALLVALUE DUP1 ISZERO PUSH2 0x16F JUMPI PUSH1 0x0 DUP1 REVERT JUMPDEST POP PUSH2 0x18A PUSH1 0x4 DUP1 CALLDATASIZE SUB DUP2 ADD SWAP1 PUSH2 0x185 SWAP2 SWAP1 PUSH2 0xCA5 JUMP JUMPDEST PUSH2 0x684 JUMP JUMPDEST PUSH1 0x40 MLOAD PUSH2 0x197 SWAP2 SWAP1 PUSH2 0xEF3 JUMP JUMPDEST PUSH1 0x40 MLOAD DUP1 SWAP2 SUB SWAP1 RETURN JUMPDEST PUSH2 0x1BA PUSH1 0x4 DUP1 CALLDATASIZE SUB DUP2 ADD SWAP1 PUSH2 0x1B5 SWAP2 SWAP1 PUSH2 0xCA5 JUMP JUMPDEST PUSH2 0x6E7 JUMP JUMPDEST STOP JUMPDEST PUSH2 0x1C4 PUSH2 0xA6F JUMP JUMPDEST PUSH1 0x0 DUP2 GT PUSH2 0x207 JUMPI PUSH1 0x40 MLOAD PUSH32 0x8C379A000000000000000000000000000000000000000000000000000000000 DUP2 MSTORE PUSH1 0x4 ADD PUSH2 0x1FE SWAP1 PUSH2 0xE53 JUMP JUMPDEST PUSH1 0x40 MLOAD DUP1 SWAP2 SUB SWAP1 REVERT JUMPDEST PUSH1 0x1 PUSH1 0x0 DUP2 SLOAD DUP1 SWAP3 SWAP2 SWAP1 PUSH2 0x21A SWAP1 PUSH2 0x128D JUMP JUMPDEST SWAP2 SWAP1 POP SSTORE POP DUP3 PUSH20 0xFFFFFFFFFFFFFFFFFFFFFFFFFFFFFFFFFFFFFFFF AND PUSH4 0x23B872DD CALLER ADDRESS DUP6 PUSH1 0x40 MLOAD DUP5 PUSH4 0xFFFFFFFF AND PUSH1 0xE0 SHL DUP2 MSTORE PUSH1 0x4 ADD PUSH2 0x25C SWAP4 SWAP3 SWAP2 SWAP1 PUSH2 0xE1C JUMP JUMPDEST PUSH1 0x0 PUSH1 0x40 MLOAD DUP1 DUP4 SUB DUP2 PUSH1 0x0 DUP8 DUP1 EXTCODESIZE ISZERO DUP1 ISZERO PUSH2 0x276 JUMPI PUSH1 0x0 DUP1 REVERT JUMPDEST POP GAS CALL ISZERO DUP1 ISZERO PUSH2 0x28A JUMPI RETURNDATASIZE PUSH1 0x0 DUP1 RETURNDATACOPY RETURNDATASIZE PUSH1 0x0 REVERT JUMPDEST POP POP POP POP PUSH1 0x40 MLOAD DUP1 PUSH2 0x100 ADD PUSH1 0x40 MSTORE DUP1 PUSH1 0x1 SLOAD DUP2 MSTORE PUSH1 0x20 ADD DUP7 DUP2 MSTORE PUSH1 0x20 ADD DUP6 DUP2 MSTORE PUSH1 0x20 ADD DUP5 PUSH20 0xFFFFFFFFFFFFFFFFFFFFFFFFFFFFFFFFFFFFFFFF AND DUP2 MSTORE PUSH1 0x20 ADD DUP4 DUP2 MSTORE PUSH1 0x20 ADD DUP3 DUP2 MSTORE PUSH1 0x20 ADD CALLER PUSH20 0xFFFFFFFFFFFFFFFFFFFFFFFFFFFFFFFFFFFFFFFF AND DUP2 MSTORE PUSH1 0x20 ADD PUSH1 0x0 ISZERO ISZERO DUP2 MSTORE POP PUSH1 0x2 PUSH1 0x0 PUSH1 0x1 SLOAD DUP2 MSTORE PUSH1 0x20 ADD SWAP1 DUP2 MSTORE PUSH1 0x20 ADD PUSH1 0x0 KECCAK256 PUSH1 0x0 DUP3 ADD MLOAD DUP2 PUSH1 0x0 ADD SSTORE PUSH1 0x20 DUP3 ADD MLOAD DUP2 PUSH1 0x1 ADD SWAP1 DUP1 MLOAD SWAP1 PUSH1 0x20 ADD SWAP1 PUSH2 0x334 SWAP3 SWAP2 SWAP1 PUSH2 0xAC9 JUMP JUMPDEST POP PUSH1 0x40 DUP3 ADD MLOAD DUP2 PUSH1 0x2 ADD SWAP1 DUP1 MLOAD SWAP1 PUSH1 0x20 ADD SWAP1 PUSH2 0x351 SWAP3 SWAP2 SWAP1 PUSH2 0xAC9 JUMP JUMPDEST POP PUSH1 0x60 DUP3 ADD MLOAD DUP2 PUSH1 0x3 ADD PUSH1 0x0 PUSH2 0x100 EXP DUP2 SLOAD DUP2 PUSH20 0xFFFFFFFFFFFFFFFFFFFFFFFFFFFFFFFFFFFFFFFF MUL NOT AND SWAP1 DUP4 PUSH20 0xFFFFFFFFFFFFFFFFFFFFFFFFFFFFFFFFFFFFFFFF AND MUL OR SWAP1 SSTORE POP PUSH1 0x80 DUP3 ADD MLOAD DUP2 PUSH1 0x4 ADD SSTORE PUSH1 0xA0 DUP3 ADD MLOAD DUP2 PUSH1 0x5 ADD SSTORE PUSH1 0xC0 DUP3 ADD MLOAD DUP2 PUSH1 0x6 ADD PUSH1 0x0 PUSH2 0x100 EXP DUP2 SLOAD DUP2 PUSH20 0xFFFFFFFFFFFFFFFFFFFFFFFFFFFFFFFFFFFFFFFF MUL NOT AND SWAP1 DUP4 PUSH20 0xFFFFFFFFFFFFFFFFFFFFFFFFFFFFFFFFFFFFFFFF AND MUL OR SWAP1 SSTORE POP PUSH1 0xE0 DUP3 ADD MLOAD DUP2 PUSH1 0x6 ADD PUSH1 0x14 PUSH2 0x100 EXP DUP2 SLOAD DUP2 PUSH1 0xFF MUL NOT AND SWAP1 DUP4 ISZERO ISZERO MUL OR SWAP1 SSTORE POP SWAP1 POP POP CALLER PUSH20 0xFFFFFFFFFFFFFFFFFFFFFFFFFFFFFFFFFFFFFFFF AND DUP4 PUSH20 0xFFFFFFFFFFFFFFFFFFFFFFFFFFFFFFFFFFFFFFFF AND PUSH32 0x655A0CF9C8DB81512BE9A76DC1C5AE5380B8816CE6AD659CD61B715E2999D59A PUSH1 0x1 SLOAD DUP6 DUP6 PUSH1 0x40 MLOAD PUSH2 0x47A SWAP4 SWAP3 SWAP2 SWAP1 PUSH2 0xF9A JUMP JUMPDEST PUSH1 0x40 MLOAD DUP1 SWAP2 SUB SWAP1 LOG3 PUSH2 0x48A PUSH2 0xABF JUMP JUMPDEST POP POP POP POP POP JUMP JUMPDEST PUSH32 0x0 DUP2 JUMP JUMPDEST PUSH1 0x1 SLOAD DUP2 JUMP JUMPDEST PUSH32 0x0 DUP2 JUMP JUMPDEST PUSH1 0x2 PUSH1 0x20 MSTORE DUP1 PUSH1 0x0 MSTORE PUSH1 0x40 PUSH1 0x0 KECCAK256 PUSH1 0x0 SWAP2 POP SWAP1 POP DUP1 PUSH1 0x0 ADD SLOAD SWAP1 DUP1 PUSH1 0x1 ADD DUP1 SLOAD PUSH2 0x508 SWAP1 PUSH2 0x122A JUMP JUMPDEST DUP1 PUSH1 0x1F ADD PUSH1 0x20 DUP1 SWAP2 DIV MUL PUSH1 0x20 ADD PUSH1 0x40 MLOAD SWAP1 DUP2 ADD PUSH1 0x40 MSTORE DUP1 SWAP3 SWAP2 SWAP1 DUP2 DUP2 MSTORE PUSH1 0x20 ADD DUP3 DUP1 SLOAD PUSH2 0x534 SWAP1 PUSH2 0x122A JUMP JUMPDEST DUP1 ISZERO PUSH2 0x581 JUMPI DUP1 PUSH1 0x1F LT PUSH2 0x556 JUMPI PUSH2 0x100 DUP1 DUP4 SLOAD DIV MUL DUP4 MSTORE SWAP2 PUSH1 0x20 ADD SWAP2 PUSH2 0x581 JUMP JUMPDEST DUP3 ADD SWAP2 SWAP1 PUSH1 0x0 MSTORE PUSH1 0x20 PUSH1 0x0 KECCAK256 SWAP1 JUMPDEST DUP2 SLOAD DUP2 MSTORE SWAP1 PUSH1 0x1 ADD SWAP1 PUSH1 0x20 ADD DUP1 DUP4 GT PUSH2 0x564 JUMPI DUP3 SWAP1 SUB PUSH1 0x1F AND DUP3 ADD SWAP2 JUMPDEST POP POP POP POP POP SWAP1 DUP1 PUSH1 0x2 ADD DUP1 SLOAD PUSH2 0x596 SWAP1 PUSH2 0x122A JUMP JUMPDEST DUP1 PUSH1 0x1F ADD PUSH1 0x20 DUP1 SWAP2 DIV MUL PUSH1 0x20 ADD PUSH1 0x40 MLOAD SWAP1 DUP2 ADD PUSH1 0x40 MSTORE DUP1 SWAP3 SWAP2 SWAP1 DUP2 DUP2 MSTORE PUSH1 0x20 ADD DUP3 DUP1 SLOAD PUSH2 0x5C2 SWAP1 PUSH2 0x122A JUMP JUMPDEST DUP1 ISZERO PUSH2 0x60F JUMPI DUP1 PUSH1 0x1F LT PUSH2 0x5E4 JUMPI PUSH2 0x100 DUP1 DUP4 SLOAD DIV MUL DUP4 MSTORE SWAP2 PUSH1 0x20 ADD SWAP2 PUSH2 0x60F JUMP JUMPDEST DUP3 ADD SWAP2 SWAP1 PUSH1 0x0 MSTORE PUSH1 0x20 PUSH1 0x0 KECCAK256 SWAP1 JUMPDEST DUP2 SLOAD DUP2 MSTORE SWAP1 PUSH1 0x1 ADD SWAP1 PUSH1 0x20 ADD DUP1 DUP4 GT PUSH2 0x5F2 JUMPI DUP3 SWAP1 SUB PUSH1 0x1F AND DUP3 ADD SWAP2 JUMPDEST POP POP POP POP POP SWAP1 DUP1 PUSH1 0x3 ADD PUSH1 0x0 SWAP1 SLOAD SWAP1 PUSH2 0x100 EXP SWAP1 DIV PUSH20 0xFFFFFFFFFFFFFFFFFFFFFFFFFFFFFFFFFFFFFFFF AND SWAP1 DUP1 PUSH1 0x4 ADD SLOAD SWAP1 DUP1 PUSH1 0x5 ADD SLOAD SWAP1 DUP1 PUSH1 0x6 ADD PUSH1 0x0 SWAP1 SLOAD SWAP1 PUSH2 0x100 EXP SWAP1 DIV PUSH20 0xFFFFFFFFFFFFFFFFFFFFFFFFFFFFFFFFFFFFFFFF AND SWAP1 DUP1 PUSH1 0x6 ADD PUSH1 0x14 SWAP1 SLOAD SWAP1 PUSH2 0x100 EXP SWAP1 DIV PUSH1 0xFF AND SWAP1 POP DUP9 JUMP JUMPDEST PUSH1 0x0 PUSH1 0x64 PUSH32 0x0 PUSH1 0x64 PUSH2 0x6B5 SWAP2 SWAP1 PUSH2 0x1043 JUMP JUMPDEST PUSH1 0x2 PUSH1 0x0 DUP6 DUP2 MSTORE PUSH1 0x20 ADD SWAP1 DUP2 MSTORE PUSH1 0x20 ADD PUSH1 0x0 KECCAK256 PUSH1 0x5 ADD SLOAD PUSH2 0x6D6 SWAP2 SWAP1 PUSH2 0x10CA JUMP JUMPDEST PUSH2 0x6E0 SWAP2 SWAP1 PUSH2 0x1099 JUMP JUMPDEST SWAP1 POP SWAP2 SWAP1 POP JUMP JUMPDEST PUSH2 0x6EF PUSH2 0xA6F JUMP JUMPDEST PUSH1 0x0 PUSH2 0x6FA DUP3 PUSH2 0x684 JUMP JUMPDEST SWAP1 POP PUSH1 0x0 PUSH1 0x2 PUSH1 0x0 DUP5 DUP2 MSTORE PUSH1 0x20 ADD SWAP1 DUP2 MSTORE PUSH1 0x20 ADD PUSH1 0x0 KECCAK256 SWAP1 POP PUSH1 0x0 DUP4 GT DUP1 ISZERO PUSH2 0x725 JUMPI POP PUSH1 0x1 SLOAD DUP4 GT ISZERO JUMPDEST PUSH2 0x764 JUMPI PUSH1 0x40 MLOAD PUSH32 0x8C379A000000000000000000000000000000000000000000000000000000000 DUP2 MSTORE PUSH1 0x4 ADD PUSH2 0x75B SWAP1 PUSH2 0xE93 JUMP JUMPDEST PUSH1 0x40 MLOAD DUP1 SWAP2 SUB SWAP1 REVERT JUMPDEST DUP2 CALLVALUE LT ISZERO PUSH2 0x7A7 JUMPI PUSH1 0x40 MLOAD PUSH32 0x8C379A000000000000000000000000000000000000000000000000000000000 DUP2 MSTORE PUSH1 0x4 ADD PUSH2 0x79E SWAP1 PUSH2 0xE73 JUMP JUMPDEST PUSH1 0x40 MLOAD DUP1 SWAP2 SUB SWAP1 REVERT JUMPDEST DUP1 PUSH1 0x6 ADD PUSH1 0x14 SWAP1 SLOAD SWAP1 PUSH2 0x100 EXP SWAP1 DIV PUSH1 0xFF AND ISZERO PUSH2 0x7F9 JUMPI PUSH1 0x40 MLOAD PUSH32 0x8C379A000000000000000000000000000000000000000000000000000000000 DUP2 MSTORE PUSH1 0x4 ADD PUSH2 0x7F0 SWAP1 PUSH2 0xED3 JUMP JUMPDEST PUSH1 0x40 MLOAD DUP1 SWAP2 SUB SWAP1 REVERT JUMPDEST DUP1 PUSH1 0x6 ADD PUSH1 0x0 SWAP1 SLOAD SWAP1 PUSH2 0x100 EXP SWAP1 DIV PUSH20 0xFFFFFFFFFFFFFFFFFFFFFFFFFFFFFFFFFFFFFFFF AND PUSH20 0xFFFFFFFFFFFFFFFFFFFFFFFFFFFFFFFFFFFFFFFF AND PUSH2 0x8FC DUP3 PUSH1 0x5 ADD SLOAD SWAP1 DUP2 ISZERO MUL SWAP1 PUSH1 0x40 MLOAD PUSH1 0x0 PUSH1 0x40 MLOAD DUP1 DUP4 SUB DUP2 DUP6 DUP9 DUP9 CALL SWAP4 POP POP POP POP ISZERO DUP1 ISZERO PUSH2 0x867 JUMPI RETURNDATASIZE PUSH1 0x0 DUP1 RETURNDATACOPY RETURNDATASIZE PUSH1 0x0 REVERT JUMPDEST POP PUSH32 0x0 PUSH20 0xFFFFFFFFFFFFFFFFFFFFFFFFFFFFFFFFFFFFFFFF AND PUSH2 0x8FC DUP3 PUSH1 0x5 ADD SLOAD DUP5 PUSH2 0x8B2 SWAP2 SWAP1 PUSH2 0x1124 JUMP JUMPDEST SWAP1 DUP2 ISZERO MUL SWAP1 PUSH1 0x40 MLOAD PUSH1 0x0 PUSH1 0x40 MLOAD DUP1 DUP4 SUB DUP2 DUP6 DUP9 DUP9 CALL SWAP4 POP POP POP POP ISZERO DUP1 ISZERO PUSH2 0x8DD JUMPI RETURNDATASIZE PUSH1 0x0 DUP1 RETURNDATACOPY RETURNDATASIZE PUSH1 0x0 REVERT JUMPDEST POP PUSH1 0x1 DUP2 PUSH1 0x6 ADD PUSH1 0x14 PUSH2 0x100 EXP DUP2 SLOAD DUP2 PUSH1 0xFF MUL NOT AND SWAP1 DUP4 ISZERO ISZERO MUL OR SWAP1 SSTORE POP DUP1 PUSH1 0x3 ADD PUSH1 0x0 SWAP1 SLOAD SWAP1 PUSH2 0x100 EXP SWAP1 DIV PUSH20 0xFFFFFFFFFFFFFFFFFFFFFFFFFFFFFFFFFFFFFFFF AND PUSH20 0xFFFFFFFFFFFFFFFFFFFFFFFFFFFFFFFFFFFFFFFF AND PUSH4 0x23B872DD ADDRESS CALLER DUP5 PUSH1 0x4 ADD SLOAD PUSH1 0x40 MLOAD DUP5 PUSH4 0xFFFFFFFF AND PUSH1 0xE0 SHL DUP2 MSTORE PUSH1 0x4 ADD PUSH2 0x960 SWAP4 SWAP3 SWAP2 SWAP1 PUSH2 0xE1C JUMP JUMPDEST PUSH1 0x0 PUSH1 0x40 MLOAD DUP1 DUP4 SUB DUP2 PUSH1 0x0 DUP8 DUP1 EXTCODESIZE ISZERO DUP1 ISZERO PUSH2 0x97A JUMPI PUSH1 0x0 DUP1 REVERT JUMPDEST POP GAS CALL ISZERO DUP1 ISZERO PUSH2 0x98E JUMPI RETURNDATASIZE PUSH1 0x0 DUP1 RETURNDATACOPY RETURNDATASIZE PUSH1 0x0 REVERT JUMPDEST POP POP POP POP CALLER PUSH20 0xFFFFFFFFFFFFFFFFFFFFFFFFFFFFFFFFFFFFFFFF AND DUP2 PUSH1 0x6 ADD PUSH1 0x0 SWAP1 SLOAD SWAP1 PUSH2 0x100 EXP SWAP1 DIV PUSH20 0xFFFFFFFFFFFFFFFFFFFFFFFFFFFFFFFFFFFFFFFF AND PUSH20 0xFFFFFFFFFFFFFFFFFFFFFFFFFFFFFFFFFFFFFFFF AND DUP3 PUSH1 0x3 ADD PUSH1 0x0 SWAP1 SLOAD SWAP1 PUSH2 0x100 EXP SWAP1 DIV PUSH20 0xFFFFFFFFFFFFFFFFFFFFFFFFFFFFFFFFFFFFFFFF AND PUSH20 0xFFFFFFFFFFFFFFFFFFFFFFFFFFFFFFFFFFFFFFFF AND PUSH32 0x8B4C9C8A607D67B321582DD8461041B1DC2CEECA70C8B7F37F8E02095CF2E76D DUP7 DUP6 PUSH1 0x4 ADD SLOAD DUP7 PUSH1 0x5 ADD SLOAD PUSH1 0x40 MLOAD PUSH2 0xA5A SWAP4 SWAP3 SWAP2 SWAP1 PUSH2 0xF9A JUMP JUMPDEST PUSH1 0x40 MLOAD DUP1 SWAP2 SUB SWAP1 LOG4 POP POP PUSH2 0xA6C PUSH2 0xABF JUMP JUMPDEST POP JUMP JUMPDEST PUSH1 0x2 PUSH1 0x0 SLOAD EQ ISZERO PUSH2 0xAB5 JUMPI PUSH1 0x40 MLOAD PUSH32 0x8C379A000000000000000000000000000000000000000000000000000000000 DUP2 MSTORE PUSH1 0x4 ADD PUSH2 0xAAC SWAP1 PUSH2 0xEB3 JUMP JUMPDEST PUSH1 0x40 MLOAD DUP1 SWAP2 SUB SWAP1 REVERT JUMPDEST PUSH1 0x2 PUSH1 0x0 DUP2 SWAP1 SSTORE POP JUMP JUMPDEST PUSH1 0x1 PUSH1 0x0 DUP2 SWAP1 SSTORE POP JUMP JUMPDEST DUP3 DUP1 SLOAD PUSH2 0xAD5 SWAP1 PUSH2 0x122A JUMP JUMPDEST SWAP1 PUSH1 0x0 MSTORE PUSH1 0x20 PUSH1 0x0 KECCAK256 SWAP1 PUSH1 0x1F ADD PUSH1 0x20 SWAP1 DIV DUP2 ADD SWAP3 DUP3 PUSH2 0xAF7 JUMPI PUSH1 0x0 DUP6 SSTORE PUSH2 0xB3E JUMP JUMPDEST DUP3 PUSH1 0x1F LT PUSH2 0xB10 JUMPI DUP1 MLOAD PUSH1 0xFF NOT AND DUP4 DUP1 ADD OR DUP6 SSTORE PUSH2 0xB3E JUMP JUMPDEST DUP3 DUP1 ADD PUSH1 0x1 ADD DUP6 SSTORE DUP3 ISZERO PUSH2 0xB3E JUMPI SWAP2 DUP3 ADD JUMPDEST DUP3 DUP2 GT ISZERO PUSH2 0xB3D JUMPI DUP3 MLOAD DUP3 SSTORE SWAP2 PUSH1 0x20 ADD SWAP2 SWAP1 PUSH1 0x1 ADD SWAP1 PUSH2 0xB22 JUMP JUMPDEST JUMPDEST POP SWAP1 POP PUSH2 0xB4B SWAP2 SWAP1 PUSH2 0xB4F JUMP JUMPDEST POP SWAP1 JUMP JUMPDEST JUMPDEST DUP1 DUP3 GT ISZERO PUSH2 0xB68 JUMPI PUSH1 0x0 DUP2 PUSH1 0x0 SWAP1 SSTORE POP PUSH1 0x1 ADD PUSH2 0xB50 JUMP JUMPDEST POP SWAP1 JUMP JUMPDEST PUSH1 0x0 PUSH2 0xB7F PUSH2 0xB7A DUP5 PUSH2 0xFF6 JUMP JUMPDEST PUSH2 0xFD1 JUMP JUMPDEST SWAP1 POP DUP3 DUP2 MSTORE PUSH1 0x20 DUP2 ADD DUP5 DUP5 DUP5 ADD GT ISZERO PUSH2 0xB97 JUMPI PUSH1 0x0 DUP1 REVERT JUMPDEST PUSH2 0xBA2 DUP5 DUP3 DUP6 PUSH2 0x11E8 JUMP JUMPDEST POP SWAP4 SWAP3 POP POP POP JUMP JUMPDEST PUSH1 0x0 DUP2 CALLDATALOAD SWAP1 POP PUSH2 0xBB9 DUP2 PUSH2 0x1496 JUMP JUMPDEST SWAP3 SWAP2 POP POP JUMP JUMPDEST PUSH1 0x0 DUP3 PUSH1 0x1F DUP4 ADD SLT PUSH2 0xBD0 JUMPI PUSH1 0x0 DUP1 REVERT JUMPDEST DUP2 CALLDATALOAD PUSH2 0xBE0 DUP5 DUP3 PUSH1 0x20 DUP7 ADD PUSH2 0xB6C JUMP JUMPDEST SWAP2 POP POP SWAP3 SWAP2 POP POP JUMP JUMPDEST PUSH1 0x0 DUP2 CALLDATALOAD SWAP1 POP PUSH2 0xBF8 DUP2 PUSH2 0x14AD JUMP JUMPDEST SWAP3 SWAP2 POP POP JUMP JUMPDEST PUSH1 0x0 DUP1 PUSH1 0x0 DUP1 PUSH1 0x0 PUSH1 0xA0 DUP7 DUP9 SUB SLT ISZERO PUSH2 0xC16 JUMPI PUSH1 0x0 DUP1 REVERT JUMPDEST PUSH1 0x0 DUP7 ADD CALLDATALOAD PUSH8 0xFFFFFFFFFFFFFFFF DUP2 GT ISZERO PUSH2 0xC30 JUMPI PUSH1 0x0 DUP1 REVERT JUMPDEST PUSH2 0xC3C DUP9 DUP3 DUP10 ADD PUSH2 0xBBF JUMP JUMPDEST SWAP6 POP POP PUSH1 0x20 DUP7 ADD CALLDATALOAD PUSH8 0xFFFFFFFFFFFFFFFF DUP2 GT ISZERO PUSH2 0xC59 JUMPI PUSH1 0x0 DUP1 REVERT JUMPDEST PUSH2 0xC65 DUP9 DUP3 DUP10 ADD PUSH2 0xBBF JUMP JUMPDEST SWAP5 POP POP PUSH1 0x40 PUSH2 0xC76 DUP9 DUP3 DUP10 ADD PUSH2 0xBAA JUMP JUMPDEST SWAP4 POP POP PUSH1 0x60 PUSH2 0xC87 DUP9 DUP3 DUP10 ADD PUSH2 0xBE9 JUMP JUMPDEST SWAP3 POP POP PUSH1 0x80 PUSH2 0xC98 DUP9 DUP3 DUP10 ADD PUSH2 0xBE9 JUMP JUMPDEST SWAP2 POP POP SWAP3 SWAP6 POP SWAP3 SWAP6 SWAP1 SWAP4 POP JUMP JUMPDEST PUSH1 0x0 PUSH1 0x20 DUP3 DUP5 SUB SLT ISZERO PUSH2 0xCB7 JUMPI PUSH1 0x0 DUP1 REVERT JUMPDEST PUSH1 0x0 PUSH2 0xCC5 DUP5 DUP3 DUP6 ADD PUSH2 0xBE9 JUMP JUMPDEST SWAP2 POP POP SWAP3 SWAP2 POP POP JUMP JUMPDEST PUSH2 0xCD7 DUP2 PUSH2 0x116A JUMP JUMPDEST DUP3 MSTORE POP POP JUMP JUMPDEST PUSH2 0xCE6 DUP2 PUSH2 0x1158 JUMP JUMPDEST DUP3 MSTORE POP POP JUMP JUMPDEST PUSH2 0xCF5 DUP2 PUSH2 0x117C JUMP JUMPDEST DUP3 MSTORE POP POP JUMP JUMPDEST PUSH2 0xD04 DUP2 PUSH2 0x11C4 JUMP JUMPDEST DUP3 MSTORE POP POP JUMP JUMPDEST PUSH1 0x0 PUSH2 0xD15 DUP3 PUSH2 0x1027 JUMP JUMPDEST PUSH2 0xD1F DUP2 DUP6 PUSH2 0x1032 JUMP JUMPDEST SWAP4 POP PUSH2 0xD2F DUP2 DUP6 PUSH1 0x20 DUP7 ADD PUSH2 0x11F7 JUMP JUMPDEST PUSH2 0xD38 DUP2 PUSH2 0x1392 JUMP JUMPDEST DUP5 ADD SWAP2 POP POP SWAP3 SWAP2 POP POP JUMP JUMPDEST PUSH1 0x0 PUSH2 0xD50 PUSH1 0x1F DUP4 PUSH2 0x1032 JUMP JUMPDEST SWAP2 POP PUSH2 0xD5B DUP3 PUSH2 0x13A3 JUMP JUMPDEST PUSH1 0x20 DUP3 ADD SWAP1 POP SWAP2 SWAP1 POP JUMP JUMPDEST PUSH1 0x0 PUSH2 0xD73 PUSH1 0x33 DUP4 PUSH2 0x1032 JUMP JUMPDEST SWAP2 POP PUSH2 0xD7E DUP3 PUSH2 0x13CC JUMP JUMPDEST PUSH1 0x40 DUP3 ADD SWAP1 POP SWAP2 SWAP1 POP JUMP JUMPDEST PUSH1 0x0 PUSH2 0xD96 PUSH1 0x12 DUP4 PUSH2 0x1032 JUMP JUMPDEST SWAP2 POP PUSH2 0xDA1 DUP3 PUSH2 0x141B JUMP JUMPDEST PUSH1 0x20 DUP3 ADD SWAP1 POP SWAP2 SWAP1 POP JUMP JUMPDEST PUSH1 0x0 PUSH2 0xDB9 PUSH1 0x1F DUP4 PUSH2 0x1032 JUMP JUMPDEST SWAP2 POP PUSH2 0xDC4 DUP3 PUSH2 0x1444 JUMP JUMPDEST PUSH1 0x20 DUP3 ADD SWAP1 POP SWAP2 SWAP1 POP JUMP JUMPDEST PUSH1 0x0 PUSH2 0xDDC PUSH1 0x11 DUP4 PUSH2 0x1032 JUMP JUMPDEST SWAP2 POP PUSH2 0xDE7 DUP3 PUSH2 0x146D JUMP JUMPDEST PUSH1 0x20 DUP3 ADD SWAP1 POP SWAP2 SWAP1 POP JUMP JUMPDEST PUSH2 0xDFB DUP2 PUSH2 0x11BA JUMP JUMPDEST DUP3 MSTORE POP POP JUMP JUMPDEST PUSH1 0x0 PUSH1 0x20 DUP3 ADD SWAP1 POP PUSH2 0xE16 PUSH1 0x0 DUP4 ADD DUP5 PUSH2 0xCCE JUMP JUMPDEST SWAP3 SWAP2 POP POP JUMP JUMPDEST PUSH1 0x0 PUSH1 0x60 DUP3 ADD SWAP1 POP PUSH2 0xE31 PUSH1 0x0 DUP4 ADD DUP7 PUSH2 0xCDD JUMP JUMPDEST PUSH2 0xE3E PUSH1 0x20 DUP4 ADD DUP6 PUSH2 0xCDD JUMP JUMPDEST PUSH2 0xE4B PUSH1 0x40 DUP4 ADD DUP5 PUSH2 0xDF2 JUMP JUMPDEST SWAP5 SWAP4 POP POP POP POP JUMP JUMPDEST PUSH1 0x0 PUSH1 0x20 DUP3 ADD SWAP1 POP DUP2 DUP2 SUB PUSH1 0x0 DUP4 ADD MSTORE PUSH2 0xE6C DUP2 PUSH2 0xD43 JUMP JUMPDEST SWAP1 POP SWAP2 SWAP1 POP JUMP JUMPDEST PUSH1 0x0 PUSH1 0x20 DUP3 ADD SWAP1 POP DUP2 DUP2 SUB PUSH1 0x0 DUP4 ADD MSTORE PUSH2 0xE8C DUP2 PUSH2 0xD66 JUMP JUMPDEST SWAP1 POP SWAP2 SWAP1 POP JUMP JUMPDEST PUSH1 0x0 PUSH1 0x20 DUP3 ADD SWAP1 POP DUP2 DUP2 SUB PUSH1 0x0 DUP4 ADD MSTORE PUSH2 0xEAC DUP2 PUSH2 0xD89 JUMP JUMPDEST SWAP1 POP SWAP2 SWAP1 POP JUMP JUMPDEST PUSH1 0x0 PUSH1 0x20 DUP3 ADD SWAP1 POP DUP2 DUP2 SUB PUSH1 0x0 DUP4 ADD MSTORE PUSH2 0xECC DUP2 PUSH2 0xDAC JUMP JUMPDEST SWAP1 POP SWAP2 SWAP1 POP JUMP JUMPDEST PUSH1 0x0 PUSH1 0x20 DUP3 ADD SWAP1 POP DUP2 DUP2 SUB PUSH1 0x0 DUP4 ADD MSTORE PUSH2 0xEEC DUP2 PUSH2 0xDCF JUMP JUMPDEST SWAP1 POP SWAP2 SWAP1 POP JUMP JUMPDEST PUSH1 0x0 PUSH1 0x20 DUP3 ADD SWAP1 POP PUSH2 0xF08 PUSH1 0x0 DUP4 ADD DUP5 PUSH2 0xDF2 JUMP JUMPDEST SWAP3 SWAP2 POP POP JUMP JUMPDEST PUSH1 0x0 PUSH2 0x100 DUP3 ADD SWAP1 POP PUSH2 0xF24 PUSH1 0x0 DUP4 ADD DUP12 PUSH2 0xDF2 JUMP JUMPDEST DUP2 DUP2 SUB PUSH1 0x20 DUP4 ADD MSTORE PUSH2 0xF36 DUP2 DUP11 PUSH2 0xD0A JUMP JUMPDEST SWAP1 POP DUP2 DUP2 SUB PUSH1 0x40 DUP4 ADD MSTORE PUSH2 0xF4A DUP2 DUP10 PUSH2 0xD0A JUMP JUMPDEST SWAP1 POP PUSH2 0xF59 PUSH1 0x60 DUP4 ADD DUP9 PUSH2 0xCFB JUMP JUMPDEST PUSH2 0xF66 PUSH1 0x80 DUP4 ADD DUP8 PUSH2 0xDF2 JUMP JUMPDEST PUSH2 0xF73 PUSH1 0xA0 DUP4 ADD DUP7 PUSH2 0xDF2 JUMP JUMPDEST PUSH2 0xF80 PUSH1 0xC0 DUP4 ADD DUP6 PUSH2 0xCCE JUMP JUMPDEST PUSH2 0xF8D PUSH1 0xE0 DUP4 ADD DUP5 PUSH2 0xCEC JUMP JUMPDEST SWAP10 SWAP9 POP POP POP POP POP POP POP POP POP JUMP JUMPDEST PUSH1 0x0 PUSH1 0x60 DUP3 ADD SWAP1 POP PUSH2 0xFAF PUSH1 0x0 DUP4 ADD DUP7 PUSH2 0xDF2 JUMP JUMPDEST PUSH2 0xFBC PUSH1 0x20 DUP4 ADD DUP6 PUSH2 0xDF2 JUMP JUMPDEST PUSH2 0xFC9 PUSH1 0x40 DUP4 ADD DUP5 PUSH2 0xDF2 JUMP JUMPDEST SWAP5 SWAP4 POP POP POP POP JUMP JUMPDEST PUSH1 0x0 PUSH2 0xFDB PUSH2 0xFEC JUMP JUMPDEST SWAP1 POP PUSH2 0xFE7 DUP3 DUP3 PUSH2 0x125C JUMP JUMPDEST SWAP2 SWAP1 POP JUMP JUMPDEST PUSH1 0x0 PUSH1 0x40 MLOAD SWAP1 POP SWAP1 JUMP JUMPDEST PUSH1 0x0 PUSH8 0xFFFFFFFFFFFFFFFF DUP3 GT ISZERO PUSH2 0x1011 JUMPI PUSH2 0x1010 PUSH2 0x1363 JUMP JUMPDEST JUMPDEST PUSH2 0x101A DUP3 PUSH2 0x1392 JUMP JUMPDEST SWAP1 POP PUSH1 0x20 DUP2 ADD SWAP1 POP SWAP2 SWAP1 POP JUMP JUMPDEST PUSH1 0x0 DUP2 MLOAD SWAP1 POP SWAP2 SWAP1 POP JUMP JUMPDEST PUSH1 0x0 DUP3 DUP3 MSTORE PUSH1 0x20 DUP3 ADD SWAP1 POP SWAP3 SWAP2 POP POP JUMP JUMPDEST PUSH1 0x0 PUSH2 0x104E DUP3 PUSH2 0x11BA JUMP JUMPDEST SWAP2 POP PUSH2 0x1059 DUP4 PUSH2 0x11BA JUMP JUMPDEST SWAP3 POP DUP3 PUSH32 0xFFFFFFFFFFFFFFFFFFFFFFFFFFFFFFFFFFFFFFFFFFFFFFFFFFFFFFFFFFFFFFFF SUB DUP3 GT ISZERO PUSH2 0x108E JUMPI PUSH2 0x108D PUSH2 0x12D6 JUMP JUMPDEST JUMPDEST DUP3 DUP3 ADD SWAP1 POP SWAP3 SWAP2 POP POP JUMP JUMPDEST PUSH1 0x0 PUSH2 0x10A4 DUP3 PUSH2 0x11BA JUMP JUMPDEST SWAP2 POP PUSH2 0x10AF DUP4 PUSH2 0x11BA JUMP JUMPDEST SWAP3 POP DUP3 PUSH2 0x10BF JUMPI PUSH2 0x10BE PUSH2 0x1305 JUMP JUMPDEST JUMPDEST DUP3 DUP3 DIV SWAP1 POP SWAP3 SWAP2 POP POP JUMP JUMPDEST PUSH1 0x0 PUSH2 0x10D5 DUP3 PUSH2 0x11BA JUMP JUMPDEST SWAP2 POP PUSH2 0x10E0 DUP4 PUSH2 0x11BA JUMP JUMPDEST SWAP3 POP DUP2 PUSH32 0xFFFFFFFFFFFFFFFFFFFFFFFFFFFFFFFFFFFFFFFFFFFFFFFFFFFFFFFFFFFFFFFF DIV DUP4 GT DUP3 ISZERO ISZERO AND ISZERO PUSH2 0x1119 JUMPI PUSH2 0x1118 PUSH2 0x12D6 JUMP JUMPDEST JUMPDEST DUP3 DUP3 MUL SWAP1 POP SWAP3 SWAP2 POP POP JUMP JUMPDEST PUSH1 0x0 PUSH2 0x112F DUP3 PUSH2 0x11BA JUMP JUMPDEST SWAP2 POP PUSH2 0x113A DUP4 PUSH2 0x11BA JUMP JUMPDEST SWAP3 POP DUP3 DUP3 LT ISZERO PUSH2 0x114D JUMPI PUSH2 0x114C PUSH2 0x12D6 JUMP JUMPDEST JUMPDEST DUP3 DUP3 SUB SWAP1 POP SWAP3 SWAP2 POP POP JUMP JUMPDEST PUSH1 0x0 PUSH2 0x1163 DUP3 PUSH2 0x119A JUMP JUMPDEST SWAP1 POP SWAP2 SWAP1 POP JUMP JUMPDEST PUSH1 0x0 PUSH2 0x1175 DUP3 PUSH2 0x119A JUMP JUMPDEST SWAP1 POP SWAP2 SWAP1 POP JUMP JUMPDEST PUSH1 0x0 DUP2 ISZERO ISZERO SWAP1 POP SWAP2 SWAP1 POP JUMP JUMPDEST PUSH1 0x0 PUSH2 0x1193 DUP3 PUSH2 0x1158 JUMP JUMPDEST SWAP1 POP SWAP2 SWAP1 POP JUMP JUMPDEST PUSH1 0x0 PUSH20 0xFFFFFFFFFFFFFFFFFFFFFFFFFFFFFFFFFFFFFFFF DUP3 AND SWAP1 POP SWAP2 SWAP1 POP JUMP JUMPDEST PUSH1 0x0 DUP2 SWAP1 POP SWAP2 SWAP1 POP JUMP JUMPDEST PUSH1 0x0 PUSH2 0x11CF DUP3 PUSH2 0x11D6 JUMP JUMPDEST SWAP1 POP SWAP2 SWAP1 POP JUMP JUMPDEST PUSH1 0x0 PUSH2 0x11E1 DUP3 PUSH2 0x119A JUMP JUMPDEST SWAP1 POP SWAP2 SWAP1 POP JUMP JUMPDEST DUP3 DUP2 DUP4 CALLDATACOPY PUSH1 0x0 DUP4 DUP4 ADD MSTORE POP POP POP JUMP JUMPDEST PUSH1 0x0 JUMPDEST DUP4 DUP2 LT ISZERO PUSH2 0x1215 JUMPI DUP1 DUP3 ADD MLOAD DUP2 DUP5 ADD MSTORE PUSH1 0x20 DUP2 ADD SWAP1 POP PUSH2 0x11FA JUMP JUMPDEST DUP4 DUP2 GT ISZERO PUSH2 0x1224 JUMPI PUSH1 0x0 DUP5 DUP5 ADD MSTORE JUMPDEST POP POP POP POP JUMP JUMPDEST PUSH1 0x0 PUSH1 0x2 DUP3 DIV SWAP1 POP PUSH1 0x1 DUP3 AND DUP1 PUSH2 0x1242 JUMPI PUSH1 0x7F DUP3 AND SWAP2 POP JUMPDEST PUSH1 0x20 DUP3 LT DUP2 EQ ISZERO PUSH2 0x1256 JUMPI PUSH2 0x1255 PUSH2 0x1334 JUMP JUMPDEST JUMPDEST POP SWAP2 SWAP1 POP JUMP JUMPDEST PUSH2 0x1265 DUP3 PUSH2 0x1392 JUMP JUMPDEST DUP2 ADD DUP2 DUP2 LT PUSH8 0xFFFFFFFFFFFFFFFF DUP3 GT OR ISZERO PUSH2 0x1284 JUMPI PUSH2 0x1283 PUSH2 0x1363 JUMP JUMPDEST JUMPDEST DUP1 PUSH1 0x40 MSTORE POP POP POP JUMP JUMPDEST PUSH1 0x0 PUSH2 0x1298 DUP3 PUSH2 0x11BA JUMP JUMPDEST SWAP2 POP PUSH32 0xFFFFFFFFFFFFFFFFFFFFFFFFFFFFFFFFFFFFFFFFFFFFFFFFFFFFFFFFFFFFFFFF DUP3 EQ ISZERO PUSH2 0x12CB JUMPI PUSH2 0x12CA PUSH2 0x12D6 JUMP JUMPDEST JUMPDEST PUSH1 0x1 DUP3 ADD SWAP1 POP SWAP2 SWAP1 POP JUMP JUMPDEST PUSH32 0x4E487B7100000000000000000000000000000000000000000000000000000000 PUSH1 0x0 MSTORE PUSH1 0x11 PUSH1 0x4 MSTORE PUSH1 0x24 PUSH1 0x0 REVERT JUMPDEST PUSH32 0x4E487B7100000000000000000000000000000000000000000000000000000000 PUSH1 0x0 MSTORE PUSH1 0x12 PUSH1 0x4 MSTORE PUSH1 0x24 PUSH1 0x0 REVERT JUMPDEST PUSH32 0x4E487B7100000000000000000000000000000000000000000000000000000000 PUSH1 0x0 MSTORE PUSH1 0x22 PUSH1 0x4 MSTORE PUSH1 0x24 PUSH1 0x0 REVERT JUMPDEST PUSH32 0x4E487B7100000000000000000000000000000000000000000000000000000000 PUSH1 0x0 MSTORE PUSH1 0x41 PUSH1 0x4 MSTORE PUSH1 0x24 PUSH1 0x0 REVERT JUMPDEST PUSH1 0x0 PUSH1 0x1F NOT PUSH1 0x1F DUP4 ADD AND SWAP1 POP SWAP2 SWAP1 POP JUMP JUMPDEST PUSH32 0x5072696365206D7573742062652067726561746572207468616E207A65726F00 PUSH1 0x0 DUP3 ADD MSTORE POP JUMP JUMPDEST PUSH32 0x4E6F7420656E6F75676820657468657220746F20636F766572206974656D2070 PUSH1 0x0 DUP3 ADD MSTORE PUSH32 0x7269636520616E64206D61726B65742066656500000000000000000000000000 PUSH1 0x20 DUP3 ADD MSTORE POP JUMP JUMPDEST PUSH32 0x4974656D20646F65736E27742065786973740000000000000000000000000000 PUSH1 0x0 DUP3 ADD MSTORE POP JUMP JUMPDEST PUSH32 0x5265656E7472616E637947756172643A207265656E7472616E742063616C6C00 PUSH1 0x0 DUP3 ADD MSTORE POP JUMP JUMPDEST PUSH32 0x4974656D20616C726561647920736F6C64000000000000000000000000000000 PUSH1 0x0 DUP3 ADD MSTORE POP JUMP JUMPDEST PUSH2 0x149F DUP2 PUSH2 0x1188 JUMP JUMPDEST DUP2 EQ PUSH2 0x14AA JUMPI PUSH1 0x0 DUP1 REVERT JUMPDEST POP JUMP JUMPDEST PUSH2 0x14B6 DUP2 PUSH2 0x11BA JUMP JUMPDEST DUP2 EQ PUSH2 0x14C1 JUMPI PUSH1 0x0 DUP1 REVERT JUMPDEST POP JUMP INVALID LOG2 PUSH5 0x6970667358 0x22 SLT KECCAK256 SELFBALANCE POP 0xC2 SWAP9 0xED 0xE4 0xE3 PUSH23 0x883B06CFCEC0CFC3161BC077228B6E1382BB7396CAB071 DUP1 PUSH5 0x736F6C6343 STOP ADDMOD DIV STOP CALLER "},"methodIdentifiers":{"feeAccount()":"65e17c9d","feePercent()":"7fd6f15c","getTotalPrice(uint256)":"ca7dd375","itemCount()":"6bfb0d01","items(uint256)":"bfb231d2","makeItem(string,string,address,uint256,uint256)":"481cd020","purchaseItem(uint256)":"d38ea5bf"}}}}}